{
  "contractName": "Bidding",
  "abi": [
    {
      "constant": true,
      "inputs": [],
      "name": "owner",
      "outputs": [
        {
          "internalType": "address",
          "name": "",
          "type": "address"
        }
      ],
      "payable": false,
      "stateMutability": "view",
      "type": "function"
    },
    {
      "constant": true,
      "inputs": [
        {
          "internalType": "uint256",
          "name": "",
          "type": "uint256"
        }
      ],
      "name": "topBids",
      "outputs": [
        {
          "internalType": "uint256",
          "name": "Cost",
          "type": "uint256"
        }
      ],
      "payable": false,
      "stateMutability": "view",
      "type": "function"
    },
    {
      "constant": false,
      "inputs": [],
      "name": "setOwner",
      "outputs": [],
      "payable": false,
      "stateMutability": "nonpayable",
      "type": "function"
    },
    {
      "constant": false,
      "inputs": [
        {
          "internalType": "uint256",
          "name": "cost",
          "type": "uint256"
        },
        {
          "internalType": "string[]",
          "name": "form",
          "type": "string[]"
        }
      ],
      "name": "setTopBids",
      "outputs": [],
      "payable": false,
      "stateMutability": "nonpayable",
      "type": "function"
    },
    {
      "constant": true,
      "inputs": [],
      "name": "getNumBids",
      "outputs": [
        {
          "internalType": "uint256",
          "name": "",
          "type": "uint256"
        }
      ],
      "payable": false,
      "stateMutability": "view",
      "type": "function"
    }
  ],
  "bytecode": "0x608060405234801561001057600080fd5b50610671806100206000396000f3fe608060405234801561001057600080fd5b50600436106100575760003560e01c8063010d98131461005c57806340caae061461008c5780638da5cb5b14610096578063c2afd8c6146100b4578063cdf6a10f146100d2575b600080fd5b6100766004803603610071919081019061047a565b6100ee565b6040516100839190610530565b60405180910390f35b610094610119565b005b61009e61015c565b6040516100ab9190610515565b60405180910390f35b6100bc610182565b6040516100c99190610530565b60405180910390f35b6100ec60048036036100e791908101906104a3565b61018e565b005b600081815481106100fb57fe5b90600052602060002090600202016000915090508060000154905081565b33600160006101000a81548173ffffffffffffffffffffffffffffffffffffffff021916908373ffffffffffffffffffffffffffffffffffffffff160217905550565b600160009054906101000a900473ffffffffffffffffffffffffffffffffffffffff1681565b60008080549050905090565b61019661020a565b604051806040016040528084815260200183815250905060008190806001815401808255809150509060018203906000526020600020906002020160009091929091909150600082015181600001556020820151816001019080519060200190610201929190610224565b50505050505050565b604051806040016040528060008152602001606081525090565b828054828255906000526020600020908101928215610273579160200282015b82811115610272578251829080519060200190610262929190610284565b5091602001919060010190610244565b5b5090506102809190610304565b5090565b828054600181600116156101000203166002900490600052602060002090601f016020900481019282601f106102c557805160ff19168380011785556102f3565b828001600101855582156102f3579182015b828111156102f25782518255916020019190600101906102d7565b5b5090506103009190610330565b5090565b61032d91905b8082111561032957600081816103209190610355565b5060010161030a565b5090565b90565b61035291905b8082111561034e576000816000905550600101610336565b5090565b90565b50805460018160011615610100020316600290046000825580601f1061037b575061039a565b601f0160209004906000526020600020908101906103999190610330565b5b50565b600082601f8301126103ae57600080fd5b81356103c16103bc82610578565b61054b565b9150818183526020840193506020810190508360005b8381101561040757813586016103ed8882610411565b8452602084019350602083019250506001810190506103d7565b5050505092915050565b600082601f83011261042257600080fd5b8135610435610430826105a0565b61054b565b9150808252602083016020830185838301111561045157600080fd5b61045c838284610608565b50505092915050565b60008135905061047481610617565b92915050565b60006020828403121561048c57600080fd5b600061049a84828501610465565b91505092915050565b600080604083850312156104b657600080fd5b60006104c485828601610465565b925050602083013567ffffffffffffffff8111156104e157600080fd5b6104ed8582860161039d565b9150509250929050565b610500816105cc565b82525050565b61050f816105fe565b82525050565b600060208201905061052a60008301846104f7565b92915050565b60006020820190506105456000830184610506565b92915050565b6000604051905081810181811067ffffffffffffffff8211171561056e57600080fd5b8060405250919050565b600067ffffffffffffffff82111561058f57600080fd5b602082029050602081019050919050565b600067ffffffffffffffff8211156105b757600080fd5b601f19601f8301169050602081019050919050565b60006105d7826105de565b9050919050565b600073ffffffffffffffffffffffffffffffffffffffff82169050919050565b6000819050919050565b82818337600083830152505050565b610620816105fe565b811461062b57600080fd5b5056fea365627a7a723158206696d6ffd6aaf286f9a5605939d93d6988fc48e7bda54b7c0fb89ec42d71a9256c6578706572696d656e74616cf564736f6c63430005100040",
  "source": "pragma solidity >=0.4.21 <0.7.0;\npragma experimental ABIEncoderV2;\n\ncontract Bidding {\n    \n    struct Bid{\n        uint Cost;\n        string[] Form;\n    }\n    Bid [] public topBids;\n    address public owner;\n    \n    function setOwner () public{\n        owner = msg.sender;\n    }\n    function setTopBids(uint cost, string[] memory form) public {\n        Bid memory newBid = Bid(cost, form);\n        topBids.push(newBid);\n    }\n    function getNumBids() public view returns(uint){\n        return topBids.length;\n    }\n}\n\n",
  "sourcePath": "D:/Dev/Transparent_Funds/Main/transparent-fund/contracts/Bidding.sol",
  "compiler": {
    "name": "solc",
    "version": "0.5.16+commit.9c3226ce.Emscripten.clang"
  },
  "schemaVersion": "3.2.5",
  "updatedAt": "2020-11-16T09:36:39.415Z",
  "networkType": "ethereum",
  "devdoc": {
    "methods": {}
  },
  "userdoc": {
    "methods": {}
  }
}