{
  "contractName": "Bidding",
  "abi": [
    {
      "constant": true,
      "inputs": [
        {
          "internalType": "uint256",
          "name": "",
          "type": "uint256"
        }
      ],
      "name": "topBids",
      "outputs": [
        {
          "internalType": "uint256",
          "name": "Cost",
          "type": "uint256"
        }
      ],
      "payable": false,
      "stateMutability": "view",
      "type": "function"
    },
    {
      "constant": false,
      "inputs": [
        {
          "internalType": "uint256",
          "name": "cost",
          "type": "uint256"
        },
        {
          "internalType": "string[]",
          "name": "form",
          "type": "string[]"
        }
      ],
      "name": "setTopBids",
      "outputs": [],
      "payable": false,
      "stateMutability": "nonpayable",
      "type": "function"
    },
    {
      "constant": true,
      "inputs": [],
      "name": "getNumBids",
      "outputs": [
        {
          "internalType": "uint256",
          "name": "",
          "type": "uint256"
        }
      ],
      "payable": false,
      "stateMutability": "view",
      "type": "function"
    }
  ],
  "bytecode": "0x608060405234801561001057600080fd5b5061056e806100206000396000f3fe608060405234801561001057600080fd5b50600436106100415760003560e01c8063010d981314610046578063c2afd8c614610076578063cdf6a10f14610094575b600080fd5b610060600480360361005b91908101906103d3565b6100b0565b60405161006d919061045f565b60405180910390f35b61007e6100db565b60405161008b919061045f565b60405180910390f35b6100ae60048036036100a991908101906103fc565b6100e7565b005b600081815481106100bd57fe5b90600052602060002090600202016000915090508060000154905081565b60008080549050905090565b6100ef610163565b60405180604001604052808481526020018381525090506000819080600181540180825580915050906001820390600052602060002090600202016000909192909190915060008201518160000155602082015181600101908051906020019061015a92919061017d565b50505050505050565b604051806040016040528060008152602001606081525090565b8280548282559060005260206000209081019282156101cc579160200282015b828111156101cb5782518290805190602001906101bb9291906101dd565b509160200191906001019061019d565b5b5090506101d9919061025d565b5090565b828054600181600116156101000203166002900490600052602060002090601f016020900481019282601f1061021e57805160ff191683800117855561024c565b8280016001018555821561024c579182015b8281111561024b578251825591602001919060010190610230565b5b5090506102599190610289565b5090565b61028691905b80821115610282576000818161027991906102ae565b50600101610263565b5090565b90565b6102ab91905b808211156102a757600081600090555060010161028f565b5090565b90565b50805460018160011615610100020316600290046000825580601f106102d457506102f3565b601f0160209004906000526020600020908101906102f29190610289565b5b50565b600082601f83011261030757600080fd5b813561031a610315826104a7565b61047a565b9150818183526020840193506020810190508360005b838110156103605781358601610346888261036a565b845260208401935060208301925050600181019050610330565b5050505092915050565b600082601f83011261037b57600080fd5b813561038e610389826104cf565b61047a565b915080825260208301602083018583830111156103aa57600080fd5b6103b5838284610505565b50505092915050565b6000813590506103cd81610514565b92915050565b6000602082840312156103e557600080fd5b60006103f3848285016103be565b91505092915050565b6000806040838503121561040f57600080fd5b600061041d858286016103be565b925050602083013567ffffffffffffffff81111561043a57600080fd5b610446858286016102f6565b9150509250929050565b610459816104fb565b82525050565b60006020820190506104746000830184610450565b92915050565b6000604051905081810181811067ffffffffffffffff8211171561049d57600080fd5b8060405250919050565b600067ffffffffffffffff8211156104be57600080fd5b602082029050602081019050919050565b600067ffffffffffffffff8211156104e657600080fd5b601f19601f8301169050602081019050919050565b6000819050919050565b82818337600083830152505050565b61051d816104fb565b811461052857600080fd5b5056fea365627a7a72315820b40cd64bcdf4df11dc5bcc8fceeca81883aac6588a92f24708e61a51b153bca56c6578706572696d656e74616cf564736f6c63430005100040",
  "source": "pragma solidity >=0.4.21 <0.7.0;\npragma experimental ABIEncoderV2;\n\ncontract Bidding {\n    \n    struct Bid{\n        uint Cost;\n        string[] Form;\n    }\n    \n    Bid [] public topBids;\n    \n    function setTopBids(uint cost, string[] memory form) public {\n        Bid memory newBid = Bid(cost, form);\n        topBids.push(newBid);\n    }\n    function getNumBids() public view returns(uint){\n        return topBids.length;\n    }\n}\n\n",
  "sourcePath": "D:/Dev/Transparent_Funds/Main/transparent-fund/contracts/Bidding.sol",
  "compiler": {
    "name": "solc",
    "version": "0.5.16+commit.9c3226ce.Emscripten.clang"
  },
  "schemaVersion": "3.2.5",
  "updatedAt": "2020-11-15T16:29:49.342Z",
  "devdoc": {
    "methods": {}
  },
  "userdoc": {
    "methods": {}
  }
}