{
  "contractName": "Domain",
  "abi": [
    {
      "inputs": [],
      "payable": false,
      "stateMutability": "nonpayable",
      "type": "constructor"
    },
    {
      "constant": true,
      "inputs": [
        {
          "internalType": "uint256",
          "name": "",
          "type": "uint256"
        }
      ],
      "name": "domains",
      "outputs": [
        {
          "internalType": "uint256",
          "name": "id",
          "type": "uint256"
        },
        {
          "internalType": "string",
          "name": "name",
          "type": "string"
        },
        {
          "internalType": "string",
          "name": "description",
          "type": "string"
        },
        {
          "internalType": "string",
          "name": "date",
          "type": "string"
        },
        {
          "internalType": "bool",
          "name": "enabled",
          "type": "bool"
        }
      ],
      "payable": false,
      "stateMutability": "view",
      "type": "function"
    },
    {
      "constant": true,
      "inputs": [],
      "name": "getNumDomain",
      "outputs": [
        {
          "internalType": "uint256",
          "name": "",
          "type": "uint256"
        }
      ],
      "payable": false,
      "stateMutability": "view",
      "type": "function"
    },
    {
      "constant": false,
      "inputs": [
        {
          "internalType": "uint256",
          "name": "_id",
          "type": "uint256"
        }
      ],
      "name": "enableDomain",
      "outputs": [],
      "payable": false,
      "stateMutability": "nonpayable",
      "type": "function"
    },
    {
      "constant": false,
      "inputs": [
        {
          "internalType": "uint256",
          "name": "_id",
          "type": "uint256"
        }
      ],
      "name": "disableDomain",
      "outputs": [],
      "payable": false,
      "stateMutability": "nonpayable",
      "type": "function"
    }
  ],
  "bytecode": "0x60806040523480156200001157600080fd5b5060006040518060a00160405280600081526020016040518060400160405280601881526020017f447261696e616765207061747465726e2072656e6577616c0000000000000000815250815260200160405180606001604052806036815260200162000e346036913981526020016040518060400160405280601081526020017f3130204d4159202d203130204a756c7900000000000000000000000000000000815250815260200160011515815250908060018154018082558091505090600182039060005260206000209060050201600090919290919091506000820151816000015560208201518160010190805190602001906200011592919062000711565b5060408201518160020190805190602001906200013492919062000711565b5060608201518160030190805190602001906200015392919062000711565b5060808201518160040160006101000a81548160ff02191690831515021790555050505060006040518060a00160405280600181526020016040518060400160405280600f81526020017f5363686f6f6c206275696c64696e670000000000000000000000000000000000815250815260200160405180608001604052806042815260200162000db36042913981526020016040518060400160405280601081526020017f3130204d4159202d203130204a756c7900000000000000000000000000000000815250815260200160011515815250908060018154018082558091505090600182039060005260206000209060050201600090919290919091506000820151816000015560208201518160010190805190602001906200027a92919062000711565b5060408201518160020190805190602001906200029992919062000711565b506060820151816003019080519060200190620002b892919062000711565b5060808201518160040160006101000a81548160ff02191690831515021790555050505060006040518060a00160405280600281526020016040518060400160405280601181526020017f526f616420636f6e737472756374696f6e00000000000000000000000000000081525081526020016040518060600160405280602b815260200162000d88602b913981526020016040518060400160405280601081526020017f3130204d4159202d203130204a756c790000000000000000000000000000000081525081526020016001151581525090806001815401808255809150509060018203906000526020600020906005020160009091929091909150600082015181600001556020820151816001019080519060200190620003df92919062000711565b506040820151816002019080519060200190620003fe92919062000711565b5060608201518160030190805190602001906200041d92919062000711565b5060808201518160040160006101000a81548160ff02191690831515021790555050505060006040518060a00160405280600381526020016040518060400160405280601381526020017f5061726b20616e6420706c617967726f756e640000000000000000000000000081525081526020016040518060600160405280602d815260200162000e6a602d913981526020016040518060400160405280601081526020017f3130204d4159202d203130204a756c7900000000000000000000000000000000815250815260200160011515815250908060018154018082558091505090600182039060005260206000209060050201600090919290919091506000820151816000015560208201518160010190805190602001906200054492919062000711565b5060408201518160020190805190602001906200056392919062000711565b5060608201518160030190805190602001906200058292919062000711565b5060808201518160040160006101000a81548160ff02191690831515021790555050505060006040518060a00160405280600481526020016040518060400160405280601e81526020017f486f73706974616c206275696c64696e6720636f6e737472756374696f6e000081525081526020016040518060600160405280603f815260200162000df5603f913981526020016040518060400160405280601081526020017f3130204d4159202d203130204a756c790000000000000000000000000000000081525081526020016001151581525090806001815401808255809150509060018203906000526020600020906005020160009091929091909150600082015181600001556020820151816001019080519060200190620006a992919062000711565b506040820151816002019080519060200190620006c892919062000711565b506060820151816003019080519060200190620006e792919062000711565b5060808201518160040160006101000a81548160ff021916908315150217905550505050620007c0565b828054600181600116156101000203166002900490600052602060002090601f016020900481019282601f106200075457805160ff191683800117855562000785565b8280016001018555821562000785579182015b828111156200078457825182559160200191906001019062000767565b5b50905062000794919062000798565b5090565b620007bd91905b80821115620007b95760008160009055506001016200079f565b5090565b90565b6105b880620007d06000396000f3fe608060405234801561001057600080fd5b506004361061004c5760003560e01c80632b88ee541461005157806366cf8fab1461007f578063b3adc09014610210578063d6cc3e0b1461022e575b600080fd5b61007d6004803603602081101561006757600080fd5b810190808035906020019092919050505061025c565b005b6100ab6004803603602081101561009557600080fd5b81019080803590602001909291905050506102dd565b6040518086815260200180602001806020018060200185151515158152602001848103845288818151815260200191508051906020019080838360005b838110156101035780820151818401526020810190506100e8565b50505050905090810190601f1680156101305780820380516001836020036101000a031916815260200191505b50848103835287818151815260200191508051906020019080838360005b8381101561016957808201518184015260208101905061014e565b50505050905090810190601f1680156101965780820380516001836020036101000a031916815260200191505b50848103825286818151815260200191508051906020019080838360005b838110156101cf5780820151818401526020810190506101b4565b50505050905090810190601f1680156101fc5780820380516001836020036101000a031916815260200191505b509850505050505050505060405180910390f35b6102186104f5565b6040518082815260200191505060405180910390f35b61025a6004803603602081101561024457600080fd5b8101908080359060200190929190505050610501565b005b60008090505b6000805490508110156102d957816000828154811061027d57fe5b90600052602060002090600502016000015414156102cc5760008082815481106102a357fe5b906000526020600020906005020160040160006101000a81548160ff0219169083151502179055505b8080600101915050610262565b5050565b600081815481106102ea57fe5b9060005260206000209060050201600091509050806000015490806001018054600181600116156101000203166002900480601f01602080910402602001604051908101604052809291908181526020018280546001816001161561010002031660029004801561039c5780601f106103715761010080835404028352916020019161039c565b820191906000526020600020905b81548152906001019060200180831161037f57829003601f168201915b505050505090806002018054600181600116156101000203166002900480601f01602080910402602001604051908101604052809291908181526020018280546001816001161561010002031660029004801561043a5780601f1061040f5761010080835404028352916020019161043a565b820191906000526020600020905b81548152906001019060200180831161041d57829003601f168201915b505050505090806003018054600181600116156101000203166002900480601f0160208091040260200160405190810160405280929190818152602001828054600181600116156101000203166002900480156104d85780601f106104ad576101008083540402835291602001916104d8565b820191906000526020600020905b8154815290600101906020018083116104bb57829003601f168201915b5050505050908060040160009054906101000a900460ff16905085565b60008080549050905090565b60008090505b60008054905081101561057f57816000828154811061052257fe5b90600052602060002090600502016000015414156105725760016000828154811061054957fe5b906000526020600020906005020160040160006101000a81548160ff0219169083151502179055505b8080600101915050610507565b505056fea265627a7a723158201216aebdf8ff6bde38f5aa6ec0c0817f5b286b67c0d062aee964e16fcc3aec2564736f6c634300051000324d61696e74656e616e6365206f662032206c616e6520726f616420666f722031306b6d2073747265746368436f6e737472756374696f6e206f66206e6577207072696d617279207363686f6f6c206275696c64696e6720696e2042686f6c61204b686572612076696c6c616765476f767420686f73706974616c206e656172204d756e6e75204b686572612076696c6c616765206172656120666f722062617369632074726561746d656e74546f20696d70726f76652074686520647261696e616765207061747465726e2073797374656d20696e204d617761697961206172656152656e6577616c206f66206f6c64207061726b20756e646572204e69676172204e6967616d204c75636b6e6f77",
  "source": "// SPDX-License-Identifier: MIT\r\npragma solidity >=0.4.21 <0.7.0;\r\n\r\ncontract Domain {\r\n    \r\n    struct domain {\r\n        uint id;\r\n        string name;\r\n        string description;\r\n        string date;\r\n        bool enabled;\r\n    }\r\n    \r\n    domain [] public domains;\r\n    \r\n    constructor() public{\r\n        domains.push(domain(0, \"Drainage pattern renewal\",\"To improve the drainage pattern system in Mawaiya area\",\"10 MAY - 10 July\", true));\r\n        domains.push(domain(1, \"School building\",\"Construction of new primary school building in Bhola Khera village\",\"10 MAY - 10 July\", true));\r\n        domains.push(domain(2, \"Road construction\",\"Maintenance of 2 lane road for 10km stretch\",\"10 MAY - 10 July\", true));\r\n        domains.push(domain(3,\"Park and playground\",\"Renewal of old park under Nigar Nigam Lucknow\",\"10 MAY - 10 July\", true));\r\n        domains.push(domain(4, \"Hospital building construction\",\"Govt hospital near Munnu Khera village area for basic treatment\",\"10 MAY - 10 July\", true));\r\n    }\r\n    \r\n    function getNumDomain() public view returns (uint) {\r\n        return domains.length;\r\n    }\r\n    \r\n    function enableDomain(uint _id) public {\r\n        for(uint i=0;i<domains.length;i++){\r\n           if(domains[i].id == _id){\r\n               domains[i].enabled = true;\r\n           } \r\n        }\r\n    }\r\n    function disableDomain(uint _id) public {\r\n        for(uint i=0;i<domains.length;i++){\r\n           if(domains[i].id == _id){\r\n               domains[i].enabled = false;\r\n           } \r\n        }\r\n    }\r\n}",
  "sourcePath": "D:/Dev/Transparent_Funds/Main/transparent-fund/contracts/Domain.sol",
  "compiler": {
    "name": "solc",
    "version": "0.5.16+commit.9c3226ce.Emscripten.clang"
  },
  "schemaVersion": "3.2.5",
  "updatedAt": "2020-12-20T08:30:57.273Z",
  "networkType": "ethereum",
  "devdoc": {
    "methods": {}
  },
  "userdoc": {
    "methods": {}
  }
}