{
  "contractName": "SimpleStorage",
  "abi": [
    {
      "constant": true,
      "inputs": [
        {
          "internalType": "uint256",
          "name": "",
          "type": "uint256"
        }
      ],
      "name": "candidates",
      "outputs": [
        {
          "internalType": "address",
          "name": "name",
          "type": "address"
        },
        {
          "internalType": "uint256",
          "name": "voteCount",
          "type": "uint256"
        }
      ],
      "payable": false,
      "stateMutability": "view",
      "type": "function"
    },
    {
      "constant": true,
      "inputs": [],
      "name": "owner",
      "outputs": [
        {
          "internalType": "address",
          "name": "",
          "type": "address"
        }
      ],
      "payable": false,
      "stateMutability": "view",
      "type": "function"
    },
    {
      "constant": true,
      "inputs": [
        {
          "internalType": "uint256",
          "name": "",
          "type": "uint256"
        }
      ],
      "name": "tenders",
      "outputs": [
        {
          "internalType": "bool",
          "name": "status",
          "type": "bool"
        },
        {
          "internalType": "string",
          "name": "name",
          "type": "string"
        },
        {
          "internalType": "string",
          "name": "description",
          "type": "string"
        },
        {
          "internalType": "uint256",
          "name": "date",
          "type": "uint256"
        }
      ],
      "payable": false,
      "stateMutability": "view",
      "type": "function"
    },
    {
      "constant": true,
      "inputs": [],
      "name": "totalVotes",
      "outputs": [
        {
          "internalType": "uint256",
          "name": "",
          "type": "uint256"
        }
      ],
      "payable": false,
      "stateMutability": "view",
      "type": "function"
    },
    {
      "constant": true,
      "inputs": [
        {
          "internalType": "address",
          "name": "",
          "type": "address"
        }
      ],
      "name": "voters",
      "outputs": [
        {
          "internalType": "bool",
          "name": "authorized",
          "type": "bool"
        },
        {
          "internalType": "bool",
          "name": "voted",
          "type": "bool"
        },
        {
          "internalType": "address",
          "name": "votedTo",
          "type": "address"
        }
      ],
      "payable": false,
      "stateMutability": "view",
      "type": "function"
    },
    {
      "constant": true,
      "inputs": [
        {
          "internalType": "uint256",
          "name": "",
          "type": "uint256"
        }
      ],
      "name": "votersAddress",
      "outputs": [
        {
          "internalType": "address",
          "name": "",
          "type": "address"
        }
      ],
      "payable": false,
      "stateMutability": "view",
      "type": "function"
    },
    {
      "constant": false,
      "inputs": [],
      "name": "setOwner",
      "outputs": [],
      "payable": false,
      "stateMutability": "nonpayable",
      "type": "function"
    },
    {
      "constant": false,
      "inputs": [
        {
          "internalType": "string",
          "name": "name",
          "type": "string"
        },
        {
          "internalType": "string",
          "name": "description",
          "type": "string"
        },
        {
          "internalType": "uint256",
          "name": "date",
          "type": "uint256"
        }
      ],
      "name": "setTender",
      "outputs": [],
      "payable": false,
      "stateMutability": "nonpayable",
      "type": "function"
    },
    {
      "constant": true,
      "inputs": [],
      "name": "getNumTenders",
      "outputs": [
        {
          "internalType": "uint256",
          "name": "",
          "type": "uint256"
        }
      ],
      "payable": false,
      "stateMutability": "view",
      "type": "function"
    },
    {
      "constant": false,
      "inputs": [
        {
          "internalType": "uint256",
          "name": "_id",
          "type": "uint256"
        }
      ],
      "name": "removeTender",
      "outputs": [],
      "payable": false,
      "stateMutability": "nonpayable",
      "type": "function"
    },
    {
      "constant": false,
      "inputs": [
        {
          "internalType": "address",
          "name": "_person",
          "type": "address"
        }
      ],
      "name": "authorize",
      "outputs": [],
      "payable": false,
      "stateMutability": "nonpayable",
      "type": "function"
    },
    {
      "constant": false,
      "inputs": [
        {
          "internalType": "address",
          "name": "_name",
          "type": "address"
        }
      ],
      "name": "addCandidate",
      "outputs": [],
      "payable": false,
      "stateMutability": "nonpayable",
      "type": "function"
    },
    {
      "constant": true,
      "inputs": [],
      "name": "getNumCandidate",
      "outputs": [
        {
          "internalType": "uint256",
          "name": "",
          "type": "uint256"
        }
      ],
      "payable": false,
      "stateMutability": "view",
      "type": "function"
    },
    {
      "constant": false,
      "inputs": [],
      "name": "removeAllCandidates",
      "outputs": [],
      "payable": false,
      "stateMutability": "nonpayable",
      "type": "function"
    },
    {
      "constant": false,
      "inputs": [
        {
          "internalType": "address",
          "name": "_voteAddress",
          "type": "address"
        }
      ],
      "name": "vote",
      "outputs": [],
      "payable": false,
      "stateMutability": "nonpayable",
      "type": "function"
    }
  ],
  "bytecode": "0x608060405234801561001057600080fd5b5061141e806100206000396000f3fe608060405234801561001057600080fd5b50600436106100f55760003560e01c806361ad902c11610097578063a3ec138d11610066578063a3ec138d146105a4578063b6a5d7de1461063e578063d02cf3cf14610682578063f77683a0146106a0576100f5565b806361ad902c146104ca5780636dd7d8ea146104e85780637781d3eb1461052c5780638da5cb5b1461055a576100f5565b806340caae06116100d357806340caae06146101d157806343242daa146101db578063465e1def146102495780634fe1fbe91461036e576100f5565b80630d15fd77146100fa5780633477ee2e146101185780633acd75f81461018d575b600080fd5b6101026106aa565b6040518082815260200191505060405180910390f35b6101446004803603602081101561012e57600080fd5b81019080803590602001909291905050506106b0565b604051808373ffffffffffffffffffffffffffffffffffffffff1673ffffffffffffffffffffffffffffffffffffffff1681526020018281526020019250505060405180910390f35b6101cf600480360360208110156101a357600080fd5b81019080803573ffffffffffffffffffffffffffffffffffffffff169060200190929190505050610701565b005b6101d961087f565b005b610207600480360360208110156101f157600080fd5b8101908080359060200190929190505050610984565b604051808273ffffffffffffffffffffffffffffffffffffffff1673ffffffffffffffffffffffffffffffffffffffff16815260200191505060405180910390f35b6102756004803603602081101561025f57600080fd5b81019080803590602001909291905050506109c0565b60405180851515151581526020018060200180602001848152602001838103835286818151815260200191508051906020019080838360005b838110156102c95780820151818401526020810190506102ae565b50505050905090810190601f1680156102f65780820380516001836020036101000a031916815260200191505b50838103825285818151815260200191508051906020019080838360005b8381101561032f578082015181840152602081019050610314565b50505050905090810190601f16801561035c5780820380516001836020036101000a031916815260200191505b50965050505050505060405180910390f35b6104c86004803603606081101561038457600080fd5b81019080803590602001906401000000008111156103a157600080fd5b8201836020820111156103b357600080fd5b803590602001918460018302840111640100000000831117156103d557600080fd5b91908080601f016020809104026020016040519081016040528093929190818152602001838380828437600081840152601f19601f8201169050808301925050505050505091929192908035906020019064010000000081111561043857600080fd5b82018360208201111561044a57600080fd5b8035906020019184600183028401116401000000008311171561046c57600080fd5b91908080601f016020809104026020016040519081016040528093929190818152602001838380828437600081840152601f19601f82011690508083019250505050505050919291929080359060200190929190505050610b3a565b005b6104d2610cc5565b6040518082815260200191505060405180910390f35b61052a600480360360208110156104fe57600080fd5b81019080803573ffffffffffffffffffffffffffffffffffffffff169060200190929190505050610cd2565b005b6105586004803603602081101561054257600080fd5b8101908080359060200190929190505050610e63565b005b6105626110b3565b604051808273ffffffffffffffffffffffffffffffffffffffff1673ffffffffffffffffffffffffffffffffffffffff16815260200191505060405180910390f35b6105e6600480360360208110156105ba57600080fd5b81019080803573ffffffffffffffffffffffffffffffffffffffff1690602001909291905050506110d8565b6040518084151515158152602001831515151581526020018273ffffffffffffffffffffffffffffffffffffffff1673ffffffffffffffffffffffffffffffffffffffff168152602001935050505060405180910390f35b6106806004803603602081101561065457600080fd5b81019080803573ffffffffffffffffffffffffffffffffffffffff16906020019092919050505061113c565b005b61068a61125b565b6040518082815260200191505060405180910390f35b6106a8611268565b005b60055481565b600281815481106106bd57fe5b90600052602060002090600202016000915090508060000160009054906101000a900473ffffffffffffffffffffffffffffffffffffffff16908060010154905082565b6000809054906101000a900473ffffffffffffffffffffffffffffffffffffffff1673ffffffffffffffffffffffffffffffffffffffff163373ffffffffffffffffffffffffffffffffffffffff16146107c3576040517f08c379a000000000000000000000000000000000000000000000000000000000815260040180806020018281038252601f8152602001807f73656e646572206973206e6f74206f776e6572206f6620636f6e74726163740081525060200191505060405180910390fd5b6107cb611278565b60405180604001604052808373ffffffffffffffffffffffffffffffffffffffff168152602001600081525090506002819080600181540180825580915050906001820390600052602060002090600202016000909192909190915060008201518160000160006101000a81548173ffffffffffffffffffffffffffffffffffffffff021916908373ffffffffffffffffffffffffffffffffffffffff160217905550602082015181600101555050505050565b600073ffffffffffffffffffffffffffffffffffffffff166000809054906101000a900473ffffffffffffffffffffffffffffffffffffffff1673ffffffffffffffffffffffffffffffffffffffff1614610942576040517f08c379a00000000000000000000000000000000000000000000000000000000081526004018080602001828103825260188152602001807f6f776e657220697320616c726561647920646566696e6564000000000000000081525060200191505060405180910390fd5b336000806101000a81548173ffffffffffffffffffffffffffffffffffffffff021916908373ffffffffffffffffffffffffffffffffffffffff160217905550565b6004818154811061099157fe5b906000526020600020016000915054906101000a900473ffffffffffffffffffffffffffffffffffffffff1681565b600381815481106109cd57fe5b90600052602060002090600402016000915090508060000160009054906101000a900460ff1690806001018054600181600116156101000203166002900480601f016020809104026020016040519081016040528092919081815260200182805460018160011615610100020316600290048015610a8c5780601f10610a6157610100808354040283529160200191610a8c565b820191906000526020600020905b815481529060010190602001808311610a6f57829003601f168201915b505050505090806002018054600181600116156101000203166002900480601f016020809104026020016040519081016040528092919081815260200182805460018160011615610100020316600290048015610b2a5780601f10610aff57610100808354040283529160200191610b2a565b820191906000526020600020905b815481529060010190602001808311610b0d57829003601f168201915b5050505050908060030154905084565b6000809054906101000a900473ffffffffffffffffffffffffffffffffffffffff1673ffffffffffffffffffffffffffffffffffffffff163373ffffffffffffffffffffffffffffffffffffffff1614610bfc576040517f08c379a000000000000000000000000000000000000000000000000000000000815260040180806020018281038252601f8152602001807f73656e646572206973206e6f74206f776e6572206f6620636f6e74726163740081525060200191505060405180910390fd5b610c046112a8565b60405180608001604052806001151581526020018581526020018481526020018381525090506003819080600181540180825580915050906001820390600052602060002090600402016000909192909190915060008201518160000160006101000a81548160ff0219169083151502179055506020820151816001019080519060200190610c949291906112d2565b506040820151816002019080519060200190610cb19291906112d2565b506060820151816003015550505050505050565b6000600380549050905090565b600160003373ffffffffffffffffffffffffffffffffffffffff1673ffffffffffffffffffffffffffffffffffffffff16815260200190815260200160002060000160019054906101000a900460ff1615610d2c57600080fd5b600160003373ffffffffffffffffffffffffffffffffffffffff1673ffffffffffffffffffffffffffffffffffffffff16815260200190815260200160002060000160009054906101000a900460ff16610d8557600080fd5b80600160003373ffffffffffffffffffffffffffffffffffffffff1673ffffffffffffffffffffffffffffffffffffffff16815260200190815260200160002060000160026101000a81548173ffffffffffffffffffffffffffffffffffffffff021916908373ffffffffffffffffffffffffffffffffffffffff16021790555060018060003373ffffffffffffffffffffffffffffffffffffffff1673ffffffffffffffffffffffffffffffffffffffff16815260200190815260200160002060000160016101000a81548160ff02191690831515021790555050565b6003805490508110610e7457600080fd5b610e7c6112a8565b604051806080016040528060001515815260200160038481548110610e9d57fe5b90600052602060002090600402016001018054600181600116156101000203166002900480601f016020809104026020016040519081016040528092919081815260200182805460018160011615610100020316600290048015610f425780601f10610f1757610100808354040283529160200191610f42565b820191906000526020600020905b815481529060010190602001808311610f2557829003601f168201915b5050505050815260200160038481548110610f5957fe5b90600052602060002090600402016002018054600181600116156101000203166002900480601f016020809104026020016040519081016040528092919081815260200182805460018160011615610100020316600290048015610ffe5780601f10610fd357610100808354040283529160200191610ffe565b820191906000526020600020905b815481529060010190602001808311610fe157829003601f168201915b505050505081526020016003848154811061101557fe5b9060005260206000209060040201600301548152509050806003838154811061103a57fe5b906000526020600020906004020160008201518160000160006101000a81548160ff02191690831515021790555060208201518160010190805190602001906110849291906112d2565b5060408201518160020190805190602001906110a19291906112d2565b50606082015181600301559050505050565b6000809054906101000a900473ffffffffffffffffffffffffffffffffffffffff1681565b60016020528060005260406000206000915090508060000160009054906101000a900460ff16908060000160019054906101000a900460ff16908060000160029054906101000a900473ffffffffffffffffffffffffffffffffffffffff16905083565b6000809054906101000a900473ffffffffffffffffffffffffffffffffffffffff1673ffffffffffffffffffffffffffffffffffffffff163373ffffffffffffffffffffffffffffffffffffffff16146111fe576040517f08c379a000000000000000000000000000000000000000000000000000000000815260040180806020018281038252601f8152602001807f73656e646572206973206e6f74206f776e6572206f6620636f6e74726163740081525060200191505060405180910390fd5b60018060008373ffffffffffffffffffffffffffffffffffffffff1673ffffffffffffffffffffffffffffffffffffffff16815260200190815260200160002060000160006101000a81548160ff02191690831515021790555050565b6000600280549050905090565b600260006112769190611352565b565b6040518060400160405280600073ffffffffffffffffffffffffffffffffffffffff168152602001600081525090565b60405180608001604052806000151581526020016060815260200160608152602001600081525090565b828054600181600116156101000203166002900490600052602060002090601f016020900481019282601f1061131357805160ff1916838001178555611341565b82800160010185558215611341579182015b82811115611340578251825591602001919060010190611325565b5b50905061134e9190611376565b5090565b5080546000825560020290600052602060002090810190611373919061139b565b50565b61139891905b8082111561139457600081600090555060010161137c565b5090565b90565b6113e691905b808211156113e257600080820160006101000a81549073ffffffffffffffffffffffffffffffffffffffff02191690556001820160009055506002016113a1565b5090565b9056fea265627a7a723158205747582e4928abcde910a86fb21ac36c65664b9f6422566c6944ddc15922ab4d64736f6c63430005100032",
  "source": "// SPDX-License-Identifier: MIT\r\npragma solidity >=0.4.21 <0.7.0;\r\n\r\ncontract SimpleStorage {\r\n    \r\n    struct Voter {\r\n        bool authorized;\r\n        bool voted;\r\n        address votedTo;\r\n    }\r\n    struct Canditate {\r\n        address name;\r\n        uint voteCount;\r\n    }\r\n    struct Tender{\r\n        bool status;\r\n        string name;\r\n        string description;\r\n        uint date;\r\n    }\r\n    \r\n    \r\n    address public owner;\r\n    mapping(address =>Voter) public voters;\r\n    Canditate[] public candidates;\r\n    Tender[] public tenders;\r\n    address[] public votersAddress;\r\n\r\n    uint public totalVotes;\r\n\r\n    // constructor() public {\r\n    //     owner = msg.sender;\r\n    // }\r\n    \r\n    function setOwner () public{\r\n        require(owner == address(0), \"owner is already defined\");\r\n        owner = msg.sender;\r\n    }\r\n\r\n    modifier ownerOnly(){\r\n        require(msg.sender == owner, \"sender is not owner of contract\");\r\n        _;\r\n    }\r\n\r\n    function setTender (string memory name,string memory description, uint date) ownerOnly public {\r\n        Tender memory newTender = Tender(true, name, description, date);\r\n        tenders.push(newTender);\r\n    }\r\n    function getNumTenders() public view returns (uint) {\r\n        return tenders.length;\r\n    }\r\n    function removeTender(uint _id) public{\r\n        require(_id < tenders.length);\r\n        Tender memory newTender = Tender(false, tenders[_id].name, tenders[_id].description, tenders[_id].date);\r\n        tenders[_id] = newTender;\r\n    }\r\n    \r\n    function authorize(address _person) ownerOnly public {\r\n        voters[_person].authorized = true;\r\n    }\r\n    \r\n    function addCandidate(address _name) ownerOnly public {\r\n        Canditate memory newStruct = Canditate(_name, 0);\r\n        candidates.push(newStruct);\r\n    }\r\n\r\n    function getNumCandidate() public view returns (uint) {\r\n        return candidates.length;\r\n    }\r\n    function removeAllCandidates() public {\r\n        delete candidates;\r\n    }\r\n    function vote(address _voteAddress) public{\r\n        require(!voters[msg.sender].voted);\r\n        require(voters[msg.sender].authorized);\r\n\r\n        voters[msg.sender].votedTo = _voteAddress;\r\n        voters[msg.sender].voted = true;\r\n\r\n    }\r\n}",
  "sourcePath": "D:/Dev/Transparent_Funds/Main/transparent-fund/contracts/SimpleStorage.sol",
  "compiler": {
    "name": "solc",
    "version": "0.5.16+commit.9c3226ce.Emscripten.clang"
  },
  "schemaVersion": "3.2.5",
  "updatedAt": "2020-11-17T10:54:37.842Z",
  "networkType": "ethereum",
  "devdoc": {
    "methods": {}
  },
  "userdoc": {
    "methods": {}
  }
}