{
  "contractName": "SimpleStorage",
  "abi": [
    {
      "inputs": [],
      "payable": false,
      "stateMutability": "nonpayable",
      "type": "constructor"
    },
    {
      "constant": true,
      "inputs": [
        {
          "internalType": "uint256",
          "name": "",
          "type": "uint256"
        }
      ],
      "name": "candidates",
      "outputs": [
        {
          "internalType": "string",
          "name": "name",
          "type": "string"
        },
        {
          "internalType": "uint256",
          "name": "voteCount",
          "type": "uint256"
        }
      ],
      "payable": false,
      "stateMutability": "view",
      "type": "function"
    },
    {
      "constant": true,
      "inputs": [],
      "name": "owner",
      "outputs": [
        {
          "internalType": "address",
          "name": "",
          "type": "address"
        }
      ],
      "payable": false,
      "stateMutability": "view",
      "type": "function"
    },
    {
      "constant": true,
      "inputs": [
        {
          "internalType": "uint256",
          "name": "",
          "type": "uint256"
        }
      ],
      "name": "tenders",
      "outputs": [
        {
          "internalType": "bool",
          "name": "status",
          "type": "bool"
        },
        {
          "internalType": "string",
          "name": "name",
          "type": "string"
        },
        {
          "internalType": "uint256",
          "name": "date",
          "type": "uint256"
        }
      ],
      "payable": false,
      "stateMutability": "view",
      "type": "function"
    },
    {
      "constant": true,
      "inputs": [],
      "name": "totalVotes",
      "outputs": [
        {
          "internalType": "uint256",
          "name": "",
          "type": "uint256"
        }
      ],
      "payable": false,
      "stateMutability": "view",
      "type": "function"
    },
    {
      "constant": true,
      "inputs": [
        {
          "internalType": "address",
          "name": "",
          "type": "address"
        }
      ],
      "name": "voters",
      "outputs": [
        {
          "internalType": "bool",
          "name": "authorized",
          "type": "bool"
        },
        {
          "internalType": "bool",
          "name": "voted",
          "type": "bool"
        },
        {
          "internalType": "uint256",
          "name": "vote",
          "type": "uint256"
        }
      ],
      "payable": false,
      "stateMutability": "view",
      "type": "function"
    },
    {
      "constant": false,
      "inputs": [
        {
          "internalType": "string",
          "name": "name",
          "type": "string"
        },
        {
          "internalType": "uint256",
          "name": "date",
          "type": "uint256"
        }
      ],
      "name": "setTender",
      "outputs": [],
      "payable": false,
      "stateMutability": "nonpayable",
      "type": "function"
    },
    {
      "constant": true,
      "inputs": [],
      "name": "getNumTenders",
      "outputs": [
        {
          "internalType": "uint256",
          "name": "",
          "type": "uint256"
        }
      ],
      "payable": false,
      "stateMutability": "view",
      "type": "function"
    },
    {
      "constant": false,
      "inputs": [
        {
          "internalType": "uint256",
          "name": "_id",
          "type": "uint256"
        }
      ],
      "name": "removeTender",
      "outputs": [],
      "payable": false,
      "stateMutability": "nonpayable",
      "type": "function"
    },
    {
      "constant": false,
      "inputs": [
        {
          "internalType": "address",
          "name": "_person",
          "type": "address"
        }
      ],
      "name": "authorize",
      "outputs": [],
      "payable": false,
      "stateMutability": "nonpayable",
      "type": "function"
    },
    {
      "constant": false,
      "inputs": [
        {
          "internalType": "string",
          "name": "_name",
          "type": "string"
        }
      ],
      "name": "addCandidate",
      "outputs": [],
      "payable": false,
      "stateMutability": "nonpayable",
      "type": "function"
    },
    {
      "constant": true,
      "inputs": [],
      "name": "getNumCandidate",
      "outputs": [
        {
          "internalType": "uint256",
          "name": "",
          "type": "uint256"
        }
      ],
      "payable": false,
      "stateMutability": "view",
      "type": "function"
    },
    {
      "constant": false,
      "inputs": [],
      "name": "removeAllCandidates",
      "outputs": [],
      "payable": false,
      "stateMutability": "nonpayable",
      "type": "function"
    },
    {
      "constant": false,
      "inputs": [
        {
          "internalType": "uint256",
          "name": "_voteIndex",
          "type": "uint256"
        }
      ],
      "name": "vote",
      "outputs": [],
      "payable": false,
      "stateMutability": "nonpayable",
      "type": "function"
    }
  ],
  "bytecode": "0x608060405234801561001057600080fd5b50336000806101000a81548173ffffffffffffffffffffffffffffffffffffffff021916908373ffffffffffffffffffffffffffffffffffffffff16021790555061103f806100606000396000f3fe608060405234801561001057600080fd5b50600436106100cf5760003560e01c806361ad902c1161008c578063a3ec138d11610066578063a3ec138d1461049d578063b6a5d7de1461050b578063d02cf3cf1461054f578063f77683a01461056d576100cf565b806361ad902c146104075780637781d3eb146104255780638da5cb5b14610453576100cf565b80630121b93f146100d457806308b67464146101025780630d15fd77146101c75780633477ee2e146101e5578063462e91ec14610293578063465e1def1461034e575b600080fd5b610100600480360360208110156100ea57600080fd5b8101908080359060200190929190505050610577565b005b6101c56004803603604081101561011857600080fd5b810190808035906020019064010000000081111561013557600080fd5b82018360208201111561014757600080fd5b8035906020019184600183028401116401000000008311171561016957600080fd5b91908080601f016020809104026020016040519081016040528093929190818152602001838380828437600081840152601f19601f8201169050808301925050505050505091929192908035906020019092919050505061070c565b005b6101cf610873565b6040518082815260200191505060405180910390f35b610211600480360360208110156101fb57600080fd5b8101908080359060200190929190505050610879565b6040518080602001838152602001828103825284818151815260200191508051906020019080838360005b8381101561025757808201518184015260208101905061023c565b50505050905090810190601f1680156102845780820380516001836020036101000a031916815260200191505b50935050505060405180910390f35b61034c600480360360208110156102a957600080fd5b81019080803590602001906401000000008111156102c657600080fd5b8201836020820111156102d857600080fd5b803590602001918460018302840111640100000000831117156102fa57600080fd5b91908080601f016020809104026020016040519081016040528093929190818152602001838380828437600081840152601f19601f820116905080830192505050505050509192919290505050610942565b005b61037a6004803603602081101561036457600080fd5b8101908080359060200190929190505050610a80565b604051808415151515815260200180602001838152602001828103825284818151815260200191508051906020019080838360005b838110156103ca5780820151818401526020810190506103af565b50505050905090810190601f1680156103f75780820380516001836020036101000a031916815260200191505b5094505050505060405180910390f35b61040f610b5c565b6040518082815260200191505060405180910390f35b6104516004803603602081101561043b57600080fd5b8101908080359060200190929190505050610b69565b005b61045b610ce0565b604051808273ffffffffffffffffffffffffffffffffffffffff1673ffffffffffffffffffffffffffffffffffffffff16815260200191505060405180910390f35b6104df600480360360208110156104b357600080fd5b81019080803573ffffffffffffffffffffffffffffffffffffffff169060200190929190505050610d05565b604051808415151515815260200183151515158152602001828152602001935050505060405180910390f35b61054d6004803603602081101561052157600080fd5b81019080803573ffffffffffffffffffffffffffffffffffffffff169060200190929190505050610d49565b005b610557610e68565b6040518082815260200191505060405180910390f35b610575610e75565b005b600160003373ffffffffffffffffffffffffffffffffffffffff1673ffffffffffffffffffffffffffffffffffffffff16815260200190815260200160002060000160019054906101000a900460ff16156105d157600080fd5b600160003373ffffffffffffffffffffffffffffffffffffffff1673ffffffffffffffffffffffffffffffffffffffff16815260200190815260200160002060000160009054906101000a900460ff1661062a57600080fd5b80600160003373ffffffffffffffffffffffffffffffffffffffff1673ffffffffffffffffffffffffffffffffffffffff1681526020019081526020016000206001018190555060018060003373ffffffffffffffffffffffffffffffffffffffff1673ffffffffffffffffffffffffffffffffffffffff16815260200190815260200160002060000160016101000a81548160ff0219169083151502179055506001600282815481106106da57fe5b906000526020600020906002020160010160008282540192505081905550600160046000828254019250508190555050565b6000809054906101000a900473ffffffffffffffffffffffffffffffffffffffff1673ffffffffffffffffffffffffffffffffffffffff163373ffffffffffffffffffffffffffffffffffffffff16146107ce576040517f08c379a000000000000000000000000000000000000000000000000000000000815260040180806020018281038252601f8152602001807f73656e646572206973206e6f74206f776e6572206f6620636f6e74726163740081525060200191505060405180910390fd5b6107d6610e85565b60405180606001604052806001151581526020018481526020018381525090506003819080600181540180825580915050906001820390600052602060002090600302016000909192909190915060008201518160000160006101000a81548160ff0219169083151502179055506020820151816001019080519060200190610860929190610ea8565b5060408201518160020155505050505050565b60045481565b6002818154811061088657fe5b9060005260206000209060020201600091509050806000018054600181600116156101000203166002900480601f0160208091040260200160405190810160405280929190818152602001828054600181600116156101000203166002900480156109325780601f1061090757610100808354040283529160200191610932565b820191906000526020600020905b81548152906001019060200180831161091557829003601f168201915b5050505050908060010154905082565b6000809054906101000a900473ffffffffffffffffffffffffffffffffffffffff1673ffffffffffffffffffffffffffffffffffffffff163373ffffffffffffffffffffffffffffffffffffffff1614610a04576040517f08c379a000000000000000000000000000000000000000000000000000000000815260040180806020018281038252601f8152602001807f73656e646572206973206e6f74206f776e6572206f6620636f6e74726163740081525060200191505060405180910390fd5b610a0c610f28565b604051806040016040528083815260200160008152509050600281908060018154018082558091505090600182039060005260206000209060020201600090919290919091506000820151816000019080519060200190610a6e929190610ea8565b50602082015181600101555050505050565b60038181548110610a8d57fe5b90600052602060002090600302016000915090508060000160009054906101000a900460ff1690806001018054600181600116156101000203166002900480601f016020809104026020016040519081016040528092919081815260200182805460018160011615610100020316600290048015610b4c5780601f10610b2157610100808354040283529160200191610b4c565b820191906000526020600020905b815481529060010190602001808311610b2f57829003601f168201915b5050505050908060020154905083565b6000600380549050905090565b6003805490508110610b7a57600080fd5b610b82610e85565b604051806060016040528060001515815260200160038481548110610ba357fe5b90600052602060002090600302016001018054600181600116156101000203166002900480601f016020809104026020016040519081016040528092919081815260200182805460018160011615610100020316600290048015610c485780601f10610c1d57610100808354040283529160200191610c48565b820191906000526020600020905b815481529060010190602001808311610c2b57829003601f168201915b5050505050815260200160038481548110610c5f57fe5b90600052602060002090600302016002015481525090508060038381548110610c8457fe5b906000526020600020906003020160008201518160000160006101000a81548160ff0219169083151502179055506020820151816001019080519060200190610cce929190610ea8565b50604082015181600201559050505050565b6000809054906101000a900473ffffffffffffffffffffffffffffffffffffffff1681565b60016020528060005260406000206000915090508060000160009054906101000a900460ff16908060000160019054906101000a900460ff16908060010154905083565b6000809054906101000a900473ffffffffffffffffffffffffffffffffffffffff1673ffffffffffffffffffffffffffffffffffffffff163373ffffffffffffffffffffffffffffffffffffffff1614610e0b576040517f08c379a000000000000000000000000000000000000000000000000000000000815260040180806020018281038252601f8152602001807f73656e646572206973206e6f74206f776e6572206f6620636f6e74726163740081525060200191505060405180910390fd5b60018060008373ffffffffffffffffffffffffffffffffffffffff1673ffffffffffffffffffffffffffffffffffffffff16815260200190815260200160002060000160006101000a81548160ff02191690831515021790555050565b6000600280549050905090565b60026000610e839190610f42565b565b604051806060016040528060001515815260200160608152602001600081525090565b828054600181600116156101000203166002900490600052602060002090601f016020900481019282601f10610ee957805160ff1916838001178555610f17565b82800160010185558215610f17579182015b82811115610f16578251825591602001919060010190610efb565b5b509050610f249190610f66565b5090565b604051806040016040528060608152602001600081525090565b5080546000825560020290600052602060002090810190610f639190610f8b565b50565b610f8891905b80821115610f84576000816000905550600101610f6c565b5090565b90565b610fbf91905b80821115610fbb5760008082016000610faa9190610fc2565b600182016000905550600201610f91565b5090565b90565b50805460018160011615610100020316600290046000825580601f10610fe85750611007565b601f0160209004906000526020600020908101906110069190610f66565b5b5056fea265627a7a7231582034f7f54c8314d1865e8644fa5438129ab365944c06a3605d8516e38f59e06f1064736f6c63430005100032",
  "source": "// SPDX-License-Identifier: MIT\r\npragma solidity >=0.4.21 <0.7.0;\r\n\r\ncontract SimpleStorage {\r\n    \r\n    struct Voter {\r\n        bool authorized;\r\n        bool voted;\r\n        uint vote;\r\n    }\r\n    struct Canditate {\r\n        string name;\r\n        uint voteCount;\r\n    }\r\n    struct Tender{\r\n        bool status;\r\n        string name;\r\n        uint date;\r\n    }\r\n    \r\n    address public owner;\r\n    mapping(address =>Voter) public voters;\r\n    Canditate[] public candidates;\r\n    Tender[] public tenders;\r\n    \r\n    uint public totalVotes;\r\n\r\n    constructor() public {\r\n        owner = msg.sender;\r\n    }\r\n\r\n    modifier ownerOnly(){\r\n        require(msg.sender == owner, \"sender is not owner of contract\");\r\n        _;\r\n    }\r\n\r\n    function setTender (string memory name, uint date) ownerOnly public {\r\n        Tender memory newTender = Tender(true, name, date);\r\n        tenders.push(newTender);\r\n    }\r\n    function getNumTenders() public view returns (uint) {\r\n        return tenders.length;\r\n    }\r\n    function removeTender(uint _id) public{\r\n        require(_id < tenders.length);\r\n        Tender memory newTender = Tender(false, tenders[_id].name, tenders[_id].date);\r\n        tenders[_id] = newTender;\r\n    }\r\n    \r\n    function authorize(address _person) ownerOnly public {\r\n        voters[_person].authorized = true;\r\n    }\r\n    \r\n    function addCandidate(string memory _name) ownerOnly public {\r\n        Canditate memory newStruct = Canditate(_name, 0);\r\n        candidates.push(newStruct);\r\n    }\r\n\r\n    function getNumCandidate() public view returns (uint) {\r\n        return candidates.length;\r\n    }\r\n    function removeAllCandidates() public {\r\n        delete candidates;\r\n    }\r\n    function vote(uint _voteIndex) public{\r\n        require(!voters[msg.sender].voted);\r\n        require(voters[msg.sender].authorized);\r\n\r\n        voters[msg.sender].vote = _voteIndex;\r\n        voters[msg.sender].voted = true;\r\n\r\n        candidates[_voteIndex].voteCount += 1;\r\n        totalVotes += 1;\r\n    }\r\n}",
  "sourcePath": "D:/Dev/Transparent_Funds/Main/transparent-fund/contracts/SimpleStorage.sol",
  "compiler": {
    "name": "solc",
    "version": "0.5.16+commit.9c3226ce.Emscripten.clang"
  },
  "schemaVersion": "3.2.5",
  "updatedAt": "2020-11-14T07:08:35.216Z",
  "networkType": "ethereum",
  "devdoc": {
    "methods": {}
  },
  "userdoc": {
    "methods": {}
  }
}