{
  "contractName": "Voter",
  "abi": [
    {
      "constant": true,
      "inputs": [
        {
          "internalType": "uint256",
          "name": "",
          "type": "uint256"
        }
      ],
      "name": "voters",
      "outputs": [
        {
          "internalType": "string",
          "name": "name",
          "type": "string"
        },
        {
          "internalType": "string",
          "name": "designation",
          "type": "string"
        },
        {
          "internalType": "bool",
          "name": "voted",
          "type": "bool"
        },
        {
          "internalType": "string",
          "name": "votedTo",
          "type": "string"
        },
        {
          "internalType": "address",
          "name": "myAddress",
          "type": "address"
        }
      ],
      "payable": false,
      "stateMutability": "view",
      "type": "function"
    },
    {
      "constant": false,
      "inputs": [
        {
          "internalType": "string",
          "name": "_name",
          "type": "string"
        },
        {
          "internalType": "string",
          "name": "_designation",
          "type": "string"
        },
        {
          "internalType": "address",
          "name": "_voter",
          "type": "address"
        }
      ],
      "name": "setVoter",
      "outputs": [],
      "payable": false,
      "stateMutability": "nonpayable",
      "type": "function"
    },
    {
      "constant": true,
      "inputs": [],
      "name": "getNumVoter",
      "outputs": [
        {
          "internalType": "uint256",
          "name": "",
          "type": "uint256"
        }
      ],
      "payable": false,
      "stateMutability": "view",
      "type": "function"
    },
    {
      "constant": false,
      "inputs": [
        {
          "internalType": "address",
          "name": "_votedBy",
          "type": "address"
        },
        {
          "internalType": "string",
          "name": "_votedTo",
          "type": "string"
        }
      ],
      "name": "voteTo",
      "outputs": [],
      "payable": false,
      "stateMutability": "nonpayable",
      "type": "function"
    }
  ],
  "bytecode": "0x608060405234801561001057600080fd5b50610a5b806100206000396000f3fe608060405234801561001057600080fd5b506004361061004c5760003560e01c80632d25b9ff146100515780634ccbd40e1461012c578063560c2e1e1461029e578063da58c7d9146102bc575b600080fd5b61012a6004803603604081101561006757600080fd5b81019080803573ffffffffffffffffffffffffffffffffffffffff169060200190929190803590602001906401000000008111156100a457600080fd5b8201836020820111156100b657600080fd5b803590602001918460018302840111640100000000831117156100d857600080fd5b91908080601f016020809104026020016040519081016040528093929190818152602001838380828437600081840152601f19601f820116905080830192505050505050509192919290505050610479565b005b61029c6004803603606081101561014257600080fd5b810190808035906020019064010000000081111561015f57600080fd5b82018360208201111561017157600080fd5b8035906020019184600183028401116401000000008311171561019357600080fd5b91908080601f016020809104026020016040519081016040528093929190818152602001838380828437600081840152601f19601f820116905080830192505050505050509192919290803590602001906401000000008111156101f657600080fd5b82018360208201111561020857600080fd5b8035906020019184600183028401116401000000008311171561022a57600080fd5b91908080601f016020809104026020016040519081016040528093929190818152602001838380828437600081840152601f19601f820116905080830192505050505050509192919290803573ffffffffffffffffffffffffffffffffffffffff16906020019092919050505061057b565b005b6102a66106bd565b6040518082815260200191505060405180910390f35b6102e8600480360360208110156102d257600080fd5b81019080803590602001909291905050506106c9565b60405180806020018060200186151515158152602001806020018573ffffffffffffffffffffffffffffffffffffffff1673ffffffffffffffffffffffffffffffffffffffff168152602001848103845289818151815260200191508051906020019080838360005b8381101561036c578082015181840152602081019050610351565b50505050905090810190601f1680156103995780820380516001836020036101000a031916815260200191505b50848103835288818151815260200191508051906020019080838360005b838110156103d25780820151818401526020810190506103b7565b50505050905090810190601f1680156103ff5780820380516001836020036101000a031916815260200191505b50848103825286818151815260200191508051906020019080838360005b8381101561043857808201518184015260208101905061041d565b50505050905090810190601f1680156104655780820380516001836020036101000a031916815260200191505b509850505050505050505060405180910390f35b60008090505b600080549050811015610576578273ffffffffffffffffffffffffffffffffffffffff16600082815481106104b057fe5b906000526020600020906005020160040160009054906101000a900473ffffffffffffffffffffffffffffffffffffffff1673ffffffffffffffffffffffffffffffffffffffff1614156105695760016000828154811061050d57fe5b906000526020600020906005020160020160006101000a81548160ff021916908315150217905550816000828154811061054357fe5b90600052602060002090600502016003019080519060200190610567929190610901565b505b808060010191505061047f565b505050565b60006040518060a001604052808581526020018481526020016000151581526020016040518060200160405280600081525081526020018373ffffffffffffffffffffffffffffffffffffffff16815250908060018154018082558091505090600182039060005260206000209060050201600090919290919091506000820151816000019080519060200190610613929190610981565b506020820151816001019080519060200190610630929190610981565b5060408201518160020160006101000a81548160ff021916908315150217905550606082015181600301908051906020019061066d929190610981565b5060808201518160040160006101000a81548173ffffffffffffffffffffffffffffffffffffffff021916908373ffffffffffffffffffffffffffffffffffffffff160217905550505050505050565b60008080549050905090565b600081815481106106d657fe5b9060005260206000209060050201600091509050806000018054600181600116156101000203166002900480601f0160208091040260200160405190810160405280929190818152602001828054600181600116156101000203166002900480156107825780601f1061075757610100808354040283529160200191610782565b820191906000526020600020905b81548152906001019060200180831161076557829003601f168201915b505050505090806001018054600181600116156101000203166002900480601f0160208091040260200160405190810160405280929190818152602001828054600181600116156101000203166002900480156108205780601f106107f557610100808354040283529160200191610820565b820191906000526020600020905b81548152906001019060200180831161080357829003601f168201915b5050505050908060020160009054906101000a900460ff1690806003018054600181600116156101000203166002900480601f0160208091040260200160405190810160405280929190818152602001828054600181600116156101000203166002900480156108d15780601f106108a6576101008083540402835291602001916108d1565b820191906000526020600020905b8154815290600101906020018083116108b457829003601f168201915b5050505050908060040160009054906101000a900473ffffffffffffffffffffffffffffffffffffffff16905085565b828054600181600116156101000203166002900490600052602060002090601f016020900481019282601f1061094257805160ff1916838001178555610970565b82800160010185558215610970579182015b8281111561096f578251825591602001919060010190610954565b5b50905061097d9190610a01565b5090565b828054600181600116156101000203166002900490600052602060002090601f016020900481019282601f106109c257805160ff19168380011785556109f0565b828001600101855582156109f0579182015b828111156109ef5782518255916020019190600101906109d4565b5b5090506109fd9190610a01565b5090565b610a2391905b80821115610a1f576000816000905550600101610a07565b5090565b9056fea265627a7a72315820855817d21399d08d96d97739b568f6c1c5e79b67e4fd5d3792bd475aa9d0cc6564736f6c63430005100032",
  "source": "// SPDX-License-Identifier: MIT\r\npragma solidity >=0.4.21 <0.7.0;\r\n\r\ncontract Voter {\r\n    \r\n    struct voter {\r\n        string name;\r\n        string designation;\r\n        bool voted;\r\n        string votedTo;\r\n        address myAddress;\r\n    }\r\n    \r\n    voter [] public voters;\r\n    \r\n    function setVoter(string memory _name, string memory _designation, address _voter) public {\r\n        voters.push(voter(_name, _designation, false, '', _voter ));\r\n    }\r\n    \r\n    function getNumVoter() public view returns(uint){\r\n        return voters.length;\r\n    }\r\n    function voteTo(address _votedBy, string memory _votedTo) public {\r\n        for(uint i=0;i<voters.length; i++){\r\n            if(voters[i].myAddress == _votedBy){\r\n                voters[i].voted = true;\r\n                voters[i].votedTo = _votedTo;\r\n            }\r\n        }\r\n    }\r\n}",
  "sourcePath": "D:/Dev/Transparent_Funds/Main/transparent-fund/contracts/Voter.sol",
  "compiler": {
    "name": "solc",
    "version": "0.5.16+commit.9c3226ce.Emscripten.clang"
  },
  "schemaVersion": "3.2.5",
  "updatedAt": "2020-12-20T08:30:52.653Z",
  "networkType": "ethereum",
  "devdoc": {
    "methods": {}
  },
  "userdoc": {
    "methods": {}
  }
}